{
  "contractName": "Marketplace",
  "abi": [
    {
      "inputs": [],
      "stateMutability": "nonpayable",
      "type": "constructor"
    },
    {
      "anonymous": false,
      "inputs": [
        {
          "indexed": false,
          "internalType": "uint256",
          "name": "id",
          "type": "uint256"
        },
        {
          "indexed": false,
          "internalType": "string",
          "name": "name",
          "type": "string"
        },
        {
          "indexed": false,
          "internalType": "uint256",
          "name": "price",
          "type": "uint256"
        },
        {
          "indexed": false,
          "internalType": "address payable",
          "name": "owner",
          "type": "address"
        },
        {
          "indexed": false,
          "internalType": "bool",
          "name": "purchased",
          "type": "bool"
        },
        {
          "indexed": false,
          "internalType": "uint256",
          "name": "upvotes",
          "type": "uint256"
        },
        {
          "indexed": false,
          "internalType": "string[3]",
          "name": "contributors",
          "type": "string[3]"
        }
      ],
      "name": "ProductCreated",
      "type": "event"
    },
    {
      "anonymous": false,
      "inputs": [
        {
          "indexed": false,
          "internalType": "uint256",
          "name": "id",
          "type": "uint256"
        },
        {
          "indexed": false,
          "internalType": "string",
          "name": "name",
          "type": "string"
        },
        {
          "indexed": false,
          "internalType": "uint256",
          "name": "price",
          "type": "uint256"
        },
        {
          "indexed": false,
          "internalType": "address payable",
          "name": "owner",
          "type": "address"
        },
        {
          "indexed": false,
          "internalType": "bool",
          "name": "purchased",
          "type": "bool"
        },
        {
          "indexed": false,
          "internalType": "uint256",
          "name": "upvotes",
          "type": "uint256"
        },
        {
          "indexed": false,
          "internalType": "string[3]",
          "name": "contributors",
          "type": "string[3]"
        }
      ],
      "name": "ProductPurchased",
      "type": "event"
    },
    {
      "anonymous": false,
      "inputs": [
        {
          "indexed": false,
          "internalType": "uint256",
          "name": "vote",
          "type": "uint256"
        }
      ],
      "name": "upVote",
      "type": "event"
    },
    {
      "inputs": [],
      "name": "historyProdCount",
      "outputs": [
        {
          "internalType": "uint256",
          "name": "",
          "type": "uint256"
        }
      ],
      "stateMutability": "view",
      "type": "function",
      "constant": true
    },
    {
      "inputs": [],
      "name": "name",
      "outputs": [
        {
          "internalType": "string",
          "name": "",
          "type": "string"
        }
      ],
      "stateMutability": "view",
      "type": "function",
      "constant": true
    },
    {
      "inputs": [],
      "name": "productCount",
      "outputs": [
        {
          "internalType": "uint256",
          "name": "",
          "type": "uint256"
        }
      ],
      "stateMutability": "view",
      "type": "function",
      "constant": true
    },
    {
      "inputs": [
        {
          "internalType": "uint256",
          "name": "",
          "type": "uint256"
        }
      ],
      "name": "products",
      "outputs": [
        {
          "internalType": "uint256",
          "name": "id",
          "type": "uint256"
        },
        {
          "internalType": "string",
          "name": "name",
          "type": "string"
        },
        {
          "internalType": "uint256",
          "name": "price",
          "type": "uint256"
        },
        {
          "internalType": "address payable",
          "name": "owner",
          "type": "address"
        },
        {
          "internalType": "bool",
          "name": "purchased",
          "type": "bool"
        },
        {
          "internalType": "uint256",
          "name": "upvotes",
          "type": "uint256"
        }
      ],
      "stateMutability": "view",
      "type": "function",
      "constant": true
    },
    {
      "inputs": [],
      "name": "products_historical",
      "outputs": [
        {
          "internalType": "string",
          "name": "",
          "type": "string"
        }
      ],
      "stateMutability": "view",
      "type": "function",
      "constant": true
    },
    {
      "inputs": [],
      "name": "vote_end",
      "outputs": [
        {
          "internalType": "uint256",
          "name": "",
          "type": "uint256"
        }
      ],
      "stateMutability": "view",
      "type": "function",
      "constant": true
    },
    {
      "inputs": [
        {
          "internalType": "uint256",
          "name": "_id",
          "type": "uint256"
        }
      ],
      "name": "getArr",
      "outputs": [
        {
          "internalType": "string[3]",
          "name": "",
          "type": "string[3]"
        }
      ],
      "stateMutability": "view",
      "type": "function",
      "constant": true
    },
    {
      "inputs": [
        {
          "internalType": "address",
          "name": "_addr",
          "type": "address"
        }
      ],
      "name": "addressToString",
      "outputs": [
        {
          "internalType": "string",
          "name": "",
          "type": "string"
        }
      ],
      "stateMutability": "pure",
      "type": "function",
      "constant": true
    },
    {
      "inputs": [],
      "name": "createVoteEnd",
      "outputs": [],
      "stateMutability": "nonpayable",
      "type": "function"
    },
    {
      "inputs": [],
      "name": "getCurrentVote",
      "outputs": [
        {
          "internalType": "uint256",
          "name": "",
          "type": "uint256"
        }
      ],
      "stateMutability": "view",
      "type": "function",
      "constant": true
    },
    {
      "inputs": [],
      "name": "resetProducts",
      "outputs": [],
      "stateMutability": "view",
      "type": "function",
      "constant": true
    },
    {
      "inputs": [
        {
          "internalType": "string",
          "name": "_name",
          "type": "string"
        },
        {
          "internalType": "uint256",
          "name": "_price",
          "type": "uint256"
        },
        {
          "internalType": "uint256",
          "name": "upvotes",
          "type": "uint256"
        },
        {
          "internalType": "string[3]",
          "name": "contributors",
          "type": "string[3]"
        }
      ],
      "name": "createProduct",
      "outputs": [],
      "stateMutability": "nonpayable",
      "type": "function"
    },
    {
      "inputs": [
        {
          "internalType": "uint256",
          "name": "_id",
          "type": "uint256"
        }
      ],
      "name": "purchaseProduct",
      "outputs": [],
      "stateMutability": "payable",
      "type": "function",
      "payable": true
    }
  ],
  "bytecode": "0x60806040526000600155600060025560006003553480156200002057600080fd5b506040518060400160405280601081526020017f65787175697369746520636f7270736500000000000000000000000000000000815250600090805190602001906200006e929190620000a5565b50604051806020016040528060008152506005908051906020019062000096929190620000a5565b506000600281905550620001ba565b828054620000b39062000155565b90600052602060002090601f016020900481019282620000d7576000855562000123565b82601f10620000f257805160ff191683800117855562000123565b8280016001018555821562000123579182015b828111156200012257825182559160200191906001019062000105565b5b50905062000132919062000136565b5090565b5b808211156200015157600081600090555060010162000137565b5090565b600060028204905060018216806200016e57607f821691505b602082108114156200018557620001846200018b565b5b50919050565b7f4e487b7100000000000000000000000000000000000000000000000000000000600052602260045260246000fd5b612ae580620001ca6000396000f3fe6080604052600436106100c25760003560e01c80636e2a26351161007f578063dc56028d11610059578063dc56028d1461024e578063de6950e814610279578063e0f6ef87146102a2578063f5f3e5e6146102cd576100c2565b80636e2a2635146101de5780637acc0b20146101f5578063a71ce3ea14610237576100c2565b806306fdde03146100c757806338e76a03146100f257806340f19b411461010e5780634308cf35146101395780635e57966d146101765780635e8a2932146101b3575b600080fd5b3480156100d357600080fd5b506100dc6102f8565b6040516100e991906125d9565b60405180910390f35b61010c600480360381019061010791906123e6565b610386565b005b34801561011a57600080fd5b50610123610a89565b60405161013091906125d9565b60405180910390f35b34801561014557600080fd5b50610160600480360381019061015b91906123e6565b610b17565b60405161016d91906125b7565b60405180910390f35b34801561018257600080fd5b5061019d6004803603810190610198919061232a565b610c00565b6040516101aa91906125d9565b60405180910390f35b3480156101bf57600080fd5b506101c8611061565b6040516101d5919061263b565b60405180910390f35b3480156101ea57600080fd5b506101f3611067565b005b34801561020157600080fd5b5061021c600480360381019061021791906123e6565b6112be565b60405161022e96959493929190612656565b60405180910390f35b34801561024357600080fd5b5061024c6113af565b005b34801561025a57600080fd5b506102636118e1565b604051610270919061263b565b60405180910390f35b34801561028557600080fd5b506102a0600480360381019061029b9190612353565b6118eb565b005b3480156102ae57600080fd5b506102b7611ad4565b6040516102c4919061263b565b60405180910390f35b3480156102d957600080fd5b506102e2611ada565b6040516102ef919061263b565b60405180910390f35b6000805461030590612968565b80601f016020809104026020016040519081016040528092919081815260200182805461033190612968565b801561037e5780601f106103535761010080835404028352916020019161037e565b820191906000526020600020905b81548152906001019060200180831161036157829003601f168201915b505050505081565b6000600460008381526020019081526020016000206040518060e0016040529081600082015481526020016001820180546103c090612968565b80601f01602080910402602001604051908101604052809291908181526020018280546103ec90612968565b80156104395780601f1061040e57610100808354040283529160200191610439565b820191906000526020600020905b81548152906001019060200180831161041c57829003601f168201915b50505050508152602001600282015481526020016003820160009054906101000a900473ffffffffffffffffffffffffffffffffffffffff1673ffffffffffffffffffffffffffffffffffffffff1673ffffffffffffffffffffffffffffffffffffffff1681526020016003820160149054906101000a900460ff161515151581526020016004820154815260200160058201600380602002604051908101604052809291906000905b828210156105865783820180546104f990612968565b80601f016020809104026020016040519081016040528092919081815260200182805461052590612968565b80156105725780601f1061054757610100808354040283529160200191610572565b820191906000526020600020905b81548152906001019060200180831161055557829003601f168201915b5050505050815260200190600101906104e3565b50505050815250509050600081606001519050600082600001511180156105b35750600154826000015111155b6105bc57600080fd5b81604001513410156105cd57600080fd5b816080015115610612576040517f08c379a00000000000000000000000000000000000000000000000000000000081526004016106099061261b565b60405180910390fd5b3373ffffffffffffffffffffffffffffffffffffffff168173ffffffffffffffffffffffffffffffffffffffff161415610681576040517f08c379a0000000000000000000000000000000000000000000000000000000008152600401610678906125fb565b60405180910390fd5b33826060019073ffffffffffffffffffffffffffffffffffffffff16908173ffffffffffffffffffffffffffffffffffffffff168152505060018260a0018181516106cc919061281c565b915081815250506106e08260600151610c00565b8260c001518360a0015160038110610721577f4e487b7100000000000000000000000000000000000000000000000000000000600052603260045260246000fd5b60200201819052508160046000858152602001908152602001600020600082015181600001556020820151816001019080519060200190610763929190612041565b506040820151816002015560608201518160030160006101000a81548173ffffffffffffffffffffffffffffffffffffffff021916908373ffffffffffffffffffffffffffffffffffffffff16021790555060808201518160030160146101000a81548160ff02191690831515021790555060a0820151816004015560c0820151816005019060036107f69291906120c7565b5090505060028260a00151106109475760018260800190151590811515815250508160046000858152602001908152602001600020600082015181600001556020820151816001019080519060200190610851929190612041565b506040820151816002015560608201518160030160006101000a81548173ffffffffffffffffffffffffffffffffffffffff021916908373ffffffffffffffffffffffffffffffffffffffff16021790555060808201518160030160146101000a81548160ff02191690831515021790555060a0820151816004015560c0820151816005019060036108e49291906120c7565b509050507fcbe37aac5d4b7f4123ead5b25660f15fc35685375eec76ab442b278c9d26aec060015483602001518460400151856060015160018760a001518860c0015160405161093a97969594939291906126be565b60405180910390a1610a84565b60008260800190151590811515815250508160046000858152602001908152602001600020600082015181600001556020820151816001019080519060200190610992929190612041565b506040820151816002015560608201518160030160006101000a81548173ffffffffffffffffffffffffffffffffffffffff021916908373ffffffffffffffffffffffffffffffffffffffff16021790555060808201518160030160146101000a81548160ff02191690831515021790555060a0820151816004015560c082015181600501906003610a259291906120c7565b509050507fcbe37aac5d4b7f4123ead5b25660f15fc35685375eec76ab442b278c9d26aec060015483602001518460400151856060015160008760a001518860c00151604051610a7b97969594939291906126be565b60405180910390a15b505050565b60058054610a9690612968565b80601f0160208091040260200160405190810160405280929190818152602001828054610ac290612968565b8015610b0f5780601f10610ae457610100808354040283529160200191610b0f565b820191906000526020600020905b815481529060010190602001808311610af257829003601f168201915b505050505081565b610b1f61211a565b600060046000848152602001908152602001600020905080600501600380602002604051908101604052809291906000905b82821015610bf4578382018054610b6790612968565b80601f0160208091040260200160405190810160405280929190818152602001828054610b9390612968565b8015610be05780601f10610bb557610100808354040283529160200191610be0565b820191906000526020600020905b815481529060010190602001808311610bc357829003601f168201915b505050505081526020019060010190610b51565b50505050915050919050565b606060008273ffffffffffffffffffffffffffffffffffffffff1660001b905060006040518060400160405280601081526020017f303132333435363738396162636465660000000000000000000000000000000081525090506000602a67ffffffffffffffff811115610c9d577f4e487b7100000000000000000000000000000000000000000000000000000000600052604160045260246000fd5b6040519080825280601f01601f191660200182016040528015610ccf5781602001600182028036833780820191505090505b5090507f300000000000000000000000000000000000000000000000000000000000000081600081518110610d2d577f4e487b7100000000000000000000000000000000000000000000000000000000600052603260045260246000fd5b60200101907effffffffffffffffffffffffffffffffffffffffffffffffffffffffffffff1916908160001a9053507f780000000000000000000000000000000000000000000000000000000000000081600181518110610db7577f4e487b7100000000000000000000000000000000000000000000000000000000600052603260045260246000fd5b60200101907effffffffffffffffffffffffffffffffffffffffffffffffffffffffffffff1916908160001a90535060005b60148110156110555782600485600c84610e03919061281c565b60208110610e3a577f4e487b7100000000000000000000000000000000000000000000000000000000600052603260045260246000fd5b1a60f81b7effffffffffffffffffffffffffffffffffffffffffffffffffffffffffffff1916901c60f81c60ff1681518110610e9f577f4e487b7100000000000000000000000000000000000000000000000000000000600052603260045260246000fd5b602001015160f81c60f81b82600283610eb89190612872565b6002610ec4919061281c565b81518110610efb577f4e487b7100000000000000000000000000000000000000000000000000000000600052603260045260246000fd5b60200101907effffffffffffffffffffffffffffffffffffffffffffffffffffffffffffff1916908160001a90535082600f60f81b85600c84610f3e919061281c565b60208110610f75577f4e487b7100000000000000000000000000000000000000000000000000000000600052603260045260246000fd5b1a60f81b1660f81c60ff1681518110610fb7577f4e487b7100000000000000000000000000000000000000000000000000000000600052603260045260246000fd5b602001015160f81c60f81b82600283610fd09190612872565b6003610fdc919061281c565b81518110611013577f4e487b7100000000000000000000000000000000000000000000000000000000600052603260045260246000fd5b60200101907effffffffffffffffffffffffffffffffffffffffffffffffffffffffffffff1916908160001a905350808061104d9061299a565b915050610de9565b50809350505050919050565b60025481565b61106f612141565b60005b6002548110156112ba57600460008281526020019081526020016000206040518060e0016040529081600082015481526020016001820180546110b490612968565b80601f01602080910402602001604051908101604052809291908181526020018280546110e090612968565b801561112d5780601f106111025761010080835404028352916020019161112d565b820191906000526020600020905b81548152906001019060200180831161111057829003601f168201915b50505050508152602001600282015481526020016003820160009054906101000a900473ffffffffffffffffffffffffffffffffffffffff1673ffffffffffffffffffffffffffffffffffffffff1673ffffffffffffffffffffffffffffffffffffffff1681526020016003820160149054906101000a900460ff161515151581526020016004820154815260200160058201600380602002604051908101604052809291906000905b8282101561127a5783820180546111ed90612968565b80601f016020809104026020016040519081016040528092919081815260200182805461121990612968565b80156112665780601f1061123b57610100808354040283529160200191611266565b820191906000526020600020905b81548152906001019060200180831161124957829003601f168201915b5050505050815260200190600101906111d7565b5050505081525050915060405180602001604052806000815250826020018190525060008260a001818152505080806112b29061299a565b915050611072565b5050565b60046020528060005260406000206000915090508060000154908060010180546112e790612968565b80601f016020809104026020016040519081016040528092919081815260200182805461131390612968565b80156113605780601f1061133557610100808354040283529160200191611360565b820191906000526020600020905b81548152906001019060200180831161134357829003601f168201915b5050505050908060020154908060030160009054906101000a900473ffffffffffffffffffffffffffffffffffffffff16908060030160149054906101000a900460ff16908060040154905086565b600260008154809291906113c29061299a565b91905055506003600254106118a6576113d9612141565b60005b6002548110156117ac57600460008281526020019081526020016000206040518060e00160405290816000820154815260200160018201805461141e90612968565b80601f016020809104026020016040519081016040528092919081815260200182805461144a90612968565b80156114975780601f1061146c57610100808354040283529160200191611497565b820191906000526020600020905b81548152906001019060200180831161147a57829003601f168201915b50505050508152602001600282015481526020016003820160009054906101000a900473ffffffffffffffffffffffffffffffffffffffff1673ffffffffffffffffffffffffffffffffffffffff1673ffffffffffffffffffffffffffffffffffffffff1681526020016003820160149054906101000a900460ff161515151581526020016004820154815260200160058201600380602002604051908101604052809291906000905b828210156115e457838201805461155790612968565b80601f016020809104026020016040519081016040528092919081815260200182805461158390612968565b80156115d05780601f106115a5576101008083540402835291602001916115d0565b820191906000526020600020905b8154815290600101906020018083116115b357829003601f168201915b505050505081526020019060010190611541565b5050505081525050915060028260a0015110611799576003600081548092919061160d9061299a565b91905055506117826005805461162290612968565b80601f016020809104026020016040519081016040528092919081815260200182805461164e90612968565b801561169b5780601f106116705761010080835404028352916020019161169b565b820191906000526020600020905b81548152906001019060200180831161167e57829003601f168201915b505050505061177d6004600085815260200190815260200160002060010180546116c490612968565b80601f01602080910402602001604051908101604052809291908181526020018280546116f090612968565b801561173d5780601f106117125761010080835404028352916020019161173d565b820191906000526020600020905b81548152906001019060200180831161172057829003601f168201915b50505050506040518060400160405280600181526020017f2000000000000000000000000000000000000000000000000000000000000000815250611ae0565b611ae0565b60059080519060200190611797929190612041565b505b80806117a49061299a565b9150506113dc565b50611876600580546117bd90612968565b80601f01602080910402602001604051908101604052809291908181526020018280546117e990612968565b80156118365780601f1061180b57610100808354040283529160200191611836565b820191906000526020600020905b81548152906001019060200180831161181957829003601f168201915b50505050506040518060400160405280600281526020017f0a0a000000000000000000000000000000000000000000000000000000000000815250611ae0565b6005908051906020019061188b929190612041565b50611894611067565b60006002819055506000600181905550505b7fec859db5a3c1ca3ee301d012a70f0e287a104754cd2f264283bb84531f0eed546002546040516118d7919061263b565b60405180910390a1565b6000600254905090565b60008451116118f957600080fd5b6000831161190657600080fd5b600160008154809291906119199061299a565b919050555061192733610c00565b818360038110611960577f4e487b7100000000000000000000000000000000000000000000000000000000600052603260045260246000fd5b60200201819052506040518060e0016040528060015481526020018581526020018481526020013373ffffffffffffffffffffffffffffffffffffffff168152602001600015158152602001838152602001828152506004600060015481526020019081526020016000206000820151816000015560208201518160010190805190602001906119f1929190612041565b506040820151816002015560608201518160030160006101000a81548173ffffffffffffffffffffffffffffffffffffffff021916908373ffffffffffffffffffffffffffffffffffffffff16021790555060808201518160030160146101000a81548160ff02191690831515021790555060a0820151816004015560c082015181600501906003611a849291906120c7565b509050507f724a7f3b7bc135399b5ba2a1305c52ce76299c03071123034f67acddc3becef160015485853360008787604051611ac697969594939291906126be565b60405180910390a150505050565b60015481565b60035481565b6060611b1c8383604051806020016040528060008152506040518060200160405280600081525060405180602001604052806000815250611b24565b905092915050565b606060008690506000869050600086905060008690506000869050600081518351855187518951611b55919061281c565b611b5f919061281c565b611b69919061281c565b611b73919061281c565b67ffffffffffffffff811115611bb2577f4e487b7100000000000000000000000000000000000000000000000000000000600052604160045260246000fd5b6040519080825280601f01601f191660200182016040528015611be45781602001600182028036833780820191505090505b5090506000819050600080600090505b8851811015611cc857888181518110611c36577f4e487b7100000000000000000000000000000000000000000000000000000000600052603260045260246000fd5b602001015160f81c60f81b838380611c4d9061299a565b945081518110611c86577f4e487b7100000000000000000000000000000000000000000000000000000000600052603260045260246000fd5b60200101907effffffffffffffffffffffffffffffffffffffffffffffffffffffffffffff1916908160001a9053508080611cc09061299a565b915050611bf4565b600090505b8751811015611da157878181518110611d0f577f4e487b7100000000000000000000000000000000000000000000000000000000600052603260045260246000fd5b602001015160f81c60f81b838380611d269061299a565b945081518110611d5f577f4e487b7100000000000000000000000000000000000000000000000000000000600052603260045260246000fd5b60200101907effffffffffffffffffffffffffffffffffffffffffffffffffffffffffffff1916908160001a9053508080611d999061299a565b915050611ccd565b600090505b8651811015611e7a57868181518110611de8577f4e487b7100000000000000000000000000000000000000000000000000000000600052603260045260246000fd5b602001015160f81c60f81b838380611dff9061299a565b945081518110611e38577f4e487b7100000000000000000000000000000000000000000000000000000000600052603260045260246000fd5b60200101907effffffffffffffffffffffffffffffffffffffffffffffffffffffffffffff1916908160001a9053508080611e729061299a565b915050611da6565b600090505b8551811015611f5357858181518110611ec1577f4e487b7100000000000000000000000000000000000000000000000000000000600052603260045260246000fd5b602001015160f81c60f81b838380611ed89061299a565b945081518110611f11577f4e487b7100000000000000000000000000000000000000000000000000000000600052603260045260246000fd5b60200101907effffffffffffffffffffffffffffffffffffffffffffffffffffffffffffff1916908160001a9053508080611f4b9061299a565b915050611e7f565b600090505b845181101561202c57848181518110611f9a577f4e487b7100000000000000000000000000000000000000000000000000000000600052603260045260246000fd5b602001015160f81c60f81b838380611fb19061299a565b945081518110611fea577f4e487b7100000000000000000000000000000000000000000000000000000000600052603260045260246000fd5b60200101907effffffffffffffffffffffffffffffffffffffffffffffffffffffffffffff1916908160001a90535080806120249061299a565b915050611f58565b82995050505050505050505095945050505050565b82805461204d90612968565b90600052602060002090601f01602090048101928261206f57600085556120b6565b82601f1061208857805160ff19168380011785556120b6565b828001600101855582156120b6579182015b828111156120b557825182559160200191906001019061209a565b5b5090506120c3919061219c565b5090565b8260038101928215612109579160200282015b828111156121085782518290805190602001906120f8929190612041565b50916020019190600101906120da565b5b50905061211691906121b9565b5090565b60405180606001604052806003905b60608152602001906001900390816121295790505090565b6040518060e00160405280600081526020016060815260200160008152602001600073ffffffffffffffffffffffffffffffffffffffff1681526020016000151581526020016000815260200161219661211a565b81525090565b5b808211156121b557600081600090555060010161219d565b5090565b5b808211156121d957600081816121d091906121dd565b506001016121ba565b5090565b5080546121e990612968565b6000825580601f106121fb575061221a565b601f016020900490600052602060002090810190612219919061219c565b5b50565b600061223061222b8461276c565b61273b565b9050808260005b85811015612267578135850161224d88826122eb565b845260208401935060208301925050600181019050612237565b5050509392505050565b600061228461227f84612792565b61273b565b90508281526020810184848401111561229c57600080fd5b6122a7848285612926565b509392505050565b6000813590506122be81612a81565b92915050565b600082601f8301126122d557600080fd5b60036122e284828561221d565b91505092915050565b600082601f8301126122fc57600080fd5b813561230c848260208601612271565b91505092915050565b60008135905061232481612a98565b92915050565b60006020828403121561233c57600080fd5b600061234a848285016122af565b91505092915050565b6000806000806080858703121561236957600080fd5b600085013567ffffffffffffffff81111561238357600080fd5b61238f878288016122eb565b94505060206123a087828801612315565b93505060406123b187828801612315565b925050606085013567ffffffffffffffff8111156123ce57600080fd5b6123da878288016122c4565b91505092959194509250565b6000602082840312156123f857600080fd5b600061240684828501612315565b91505092915050565b600061241b83836124b6565b905092915050565b61242c816128de565b82525050565b600061243d826127cc565b61244781856127ef565b935083602082028501612459856127c2565b8060005b858110156124955784840389528151612476858261240f565b9450612481836127e2565b925060208a0199505060018101905061245d565b50829750879550505050505092915050565b6124b0816128f0565b82525050565b60006124c1826127d7565b6124cb81856127fa565b93506124db818560208601612935565b6124e481612a70565b840191505092915050565b60006124fa826127d7565b612504818561280b565b9350612514818560208601612935565b61251d81612a70565b840191505092915050565b6000612535600f8361280b565b91507f416c7265616479207570766f74656400000000000000000000000000000000006000830152602082019050919050565b6000612575601f8361280b565b91507f596f752063616e6e6f74207570766f746520796f75722073656e74656e6365006000830152602082019050919050565b6125b18161291c565b82525050565b600060208201905081810360008301526125d18184612432565b905092915050565b600060208201905081810360008301526125f381846124ef565b905092915050565b6000602082019050818103600083015261261481612528565b9050919050565b6000602082019050818103600083015261263481612568565b9050919050565b600060208201905061265060008301846125a8565b92915050565b600060c08201905061266b60008301896125a8565b818103602083015261267d81886124ef565b905061268c60408301876125a8565b6126996060830186612423565b6126a660808301856124a7565b6126b360a08301846125a8565b979650505050505050565b600060e0820190506126d3600083018a6125a8565b81810360208301526126e581896124ef565b90506126f460408301886125a8565b6127016060830187612423565b61270e60808301866124a7565b61271b60a08301856125a8565b81810360c083015261272d8184612432565b905098975050505050505050565b6000604051905081810181811067ffffffffffffffff8211171561276257612761612a41565b5b8060405250919050565b600067ffffffffffffffff82111561278757612786612a41565b5b602082029050919050565b600067ffffffffffffffff8211156127ad576127ac612a41565b5b601f19601f8301169050602081019050919050565b6000819050919050565b600060039050919050565b600081519050919050565b6000602082019050919050565b600081905092915050565b600082825260208201905092915050565b600082825260208201905092915050565b60006128278261291c565b91506128328361291c565b9250827fffffffffffffffffffffffffffffffffffffffffffffffffffffffffffffffff03821115612867576128666129e3565b5b828201905092915050565b600061287d8261291c565b91506128888361291c565b9250817fffffffffffffffffffffffffffffffffffffffffffffffffffffffffffffffff04831182151516156128c1576128c06129e3565b5b828202905092915050565b60006128d7826128fc565b9050919050565b60006128e9826128fc565b9050919050565b60008115159050919050565b600073ffffffffffffffffffffffffffffffffffffffff82169050919050565b6000819050919050565b82818337600083830152505050565b60005b83811015612953578082015181840152602081019050612938565b83811115612962576000848401525b50505050565b6000600282049050600182168061298057607f821691505b6020821081141561299457612993612a12565b5b50919050565b60006129a58261291c565b91507fffffffffffffffffffffffffffffffffffffffffffffffffffffffffffffffff8214156129d8576129d76129e3565b5b600182019050919050565b7f4e487b7100000000000000000000000000000000000000000000000000000000600052601160045260246000fd5b7f4e487b7100000000000000000000000000000000000000000000000000000000600052602260045260246000fd5b7f4e487b7100000000000000000000000000000000000000000000000000000000600052604160045260246000fd5b6000601f19601f8301169050919050565b612a8a816128cc565b8114612a9557600080fd5b50565b612aa18161291c565b8114612aac57600080fd5b5056fea26469706673582212208e115fffd84289444dfdc71f4a1b06933bc5b39e6b7e5676d9e30fe0ba20323e64736f6c63430008000033",
  "immutableReferences": {},
  "source": "pragma solidity ^0.8.0;\r\n\r\ncontract Marketplace {\r\n\tstring public name;\r\n\tuint public productCount = 0;\r\n\tuint public vote_end = 0;\r\n\tuint public historyProdCount = 0;\r\n\tmapping(uint => Product) public products;\r\n\t//mapping(Product => string) public productContributors;\r\n\t// store the stories that have reached ten upvotes for display\r\n\tstring public products_historical;\r\n\r\n\tstruct Product {\r\n\t\tuint id;\r\n\t\tstring name;\r\n\t\tuint price;\r\n\t\taddress payable owner;\r\n\t\tbool purchased;\r\n\t\tuint upvotes;\r\n\t\tstring[3] contributors;\r\n\t}\r\n\r\n\tevent ProductCreated(\r\n\t\tuint id,\r\n\t\tstring name,\r\n\t\tuint price,\r\n\t\taddress payable owner,\r\n\t\tbool purchased,\r\n\t\tuint upvotes,\r\n\t\tstring[3] contributors\t\r\n\t);\r\n\r\n\t// event ContributorTracker(\r\n\t// \tuint id,\r\n\t// \tstring contrib\r\n\t// );\r\n\r\n\tevent upVote(\r\n\t\tuint vote\r\n\t);\r\n\r\n\tevent ProductPurchased(\r\n\t\tuint id,\r\n\t\tstring name,\r\n\t\tuint price,\r\n\t\taddress payable owner,\r\n\t\tbool purchased,\r\n\t\tuint upvotes,\r\n\t\tstring[3] contributors\r\n\t);\r\n\r\n\tstruct voteEnd{\r\n\t\tuint votes;\r\n\t}\r\n\t\r\n\r\n\tconstructor() {\r\n\t\tname = \"exquisite corpse\";\r\n\t\tproducts_historical ='';\r\n\t\tvote_end = 0;\r\n\t}\r\n\r\n\tfunction getArr(uint _id) public view returns (string[3] memory) {\r\n\t\tProduct storage myProduct = products[_id];\r\n    \treturn myProduct.contributors;\r\n\t}\r\n\r\n\tfunction strConcat(string memory _a, string memory _b, string memory _c, string memory _d, string memory _e) internal pure returns (string memory){\r\n    bytes memory _ba = bytes(_a);\r\n    bytes memory _bb = bytes(_b);\r\n    bytes memory _bc = bytes(_c);\r\n    bytes memory _bd = bytes(_d);\r\n    bytes memory _be = bytes(_e);\r\n    string memory abcde = new string(_ba.length + _bb.length + _bc.length + _bd.length + _be.length);\r\n    bytes memory babcde = bytes(abcde);\r\n    uint k = 0;\r\n\tuint i = 0;\r\n    for (i = 0; i < _ba.length; i++) babcde[k++] = _ba[i];\r\n    for (i = 0; i < _bb.length; i++) babcde[k++] = _bb[i];\r\n    for (i = 0; i < _bc.length; i++) babcde[k++] = _bc[i];\r\n    for (i = 0; i < _bd.length; i++) babcde[k++] = _bd[i];\r\n    for (i = 0; i < _be.length; i++) babcde[k++] = _be[i];\r\n    return string(babcde);\r\n\t}\r\n\r\n\tfunction strConcat(string memory _a, string memory _b) internal pure returns (string memory) {\r\n    return strConcat(_a, _b, \"\", \"\", \"\");\r\n}\r\n\r\n\tfunction toString(uint _i) internal pure returns (string memory _uintAsString) {\r\n        if (_i == 0) {\r\n            return \"0\";\r\n        }\r\n        uint j = _i;\r\n        uint len;\r\n        while (j != 0) {\r\n            len++;\r\n            j /= 10;\r\n        }\r\n        bytes memory bstr = new bytes(len);\r\n        uint k = len;\r\n        while (_i != 0) {\r\n            k = k-1;\r\n            uint8 temp = (48 + uint8(_i - _i / 10 * 10));\r\n            bytes1 b1 = bytes1(temp);\r\n            bstr[k] = b1;\r\n            _i /= 10;\r\n        }\r\n        return string(bstr);\r\n    }\r\n\tfunction addressToString(address _addr) public pure returns (string memory) {\r\n\t\tbytes32 value = bytes32(uint256(uint160(_addr)));\r\n\t\tbytes memory alphabet = \"0123456789abcdef\";\r\n\r\n\t\tbytes memory str = new bytes(42);\r\n\t\tstr[0] = '0';\r\n\t\tstr[1] = 'x';\r\n\t\tfor (uint i = 0; i < 20; i++) {\r\n\t\t\tstr[2+i*2] = alphabet[uint8(value[i + 12] >> 4)];\r\n\t\t\tstr[3+i*2] = alphabet[uint8(value[i + 12] & 0x0f)];\r\n\t\t}\r\n\t\treturn string(str);\r\n\t}\r\n\r\n\tfunction createVoteEnd() public {\r\n\t\tvote_end++;\r\n\t\tif(vote_end >= 3){\r\n\t\t\tProduct memory _product;\r\n\t\t\tfor(uint i = 0; i < vote_end; i++){\r\n\t\t\t\t_product = products[i];\r\n\t\t\t\tif(_product.upvotes >= 2){\r\n\t\t\t\t\t\thistoryProdCount++;\r\n\t\t\t\t\t\tproducts_historical = strConcat(products_historical, strConcat(products[i].name, \" \"));\r\n\t\t\t\t}\r\n\t\t\t}\r\n\t\t\tproducts_historical = strConcat(products_historical, \"\\n\\n\");\r\n\t\t\tresetProducts();\r\n\t\t\tvote_end = 0;\r\n\t\t\tproductCount = 0;\r\n\t\t}\r\n\t\temit upVote(vote_end);\r\n\t}\r\n\r\n\tfunction getCurrentVote() public view returns (uint) {\r\n\t\t// portion where we plug in tufts account\r\n\t\t// address(_seller).transfer(msg.value);\r\n\t\treturn vote_end;\r\n\t}\r\n\t\r\n\t// function getCurrentContrib(uint _id)  public view returns (string [3] memory) {\r\n\t// \tProduct memory _product = products[_id];\r\n\t// \treturn _product.contributors;\r\n\t// }\r\n\r\n\t// function checkVotesLoad() public{\r\n\t// \tProduct memory _product;\r\n\t// \tfor(uint i = 0; i < vote_end; i++){\r\n\t// \t\t_product = products[i];\r\n\t// \t\tif(_product.upvotes >= 2){\r\n\t// \t\t\t\thistoryProdCount++;\r\n\t// \t\t\t\t_product = products[i];\r\n \t// \t\t\t\tproducts_historical[historyProdCount] = _product;\r\n\t// \t\t}\r\n\t// \t}\r\n\t// }\r\n\r\n\tfunction resetProducts() public view{\r\n\t\tProduct memory _product;\r\n\t\tfor(uint i = 0; i < vote_end; i++){\r\n\t\t\t_product = products[i];\r\n\t\t\t_product.name = \"\";\r\n\t\t\t_product.upvotes = 0;\r\n\t\t}\r\n\t}\r\n\r\n\r\n\tfunction createProduct(string memory _name, uint _price, uint upvotes, string[3] memory contributors) public {\r\n\t\t// require a name\r\n\t\trequire(bytes(_name).length > 0);\r\n\t\t// require a valid price\r\n\t\trequire(_price > 0);\r\n\t\t// make sure params good\r\n\t\t// inc products count\r\n\t\tproductCount++;\r\n\t\t//add owner to contributors\r\n\t\tcontributors[upvotes] = addressToString(msg.sender);\r\n\t\t// create the product\r\n\t\tproducts[productCount] = Product(productCount, _name, _price, payable(msg.sender), false, upvotes, contributors);\r\n\t\t// trigger an event\t\r\n\t\temit ProductCreated(productCount, _name, _price, payable(msg.sender), false, upvotes, contributors);\r\n\t}\r\n\r\n\tfunction purchaseProduct(uint _id) public payable {\r\n\t\t// fetch product\r\n\t\tProduct memory _product = products[_id];\t\r\n\t\t// fetch the owner\r\n\t\taddress _seller = _product.owner;\r\n\t\t\r\n\t\t// make sure the product has a valid id\r\n\t\trequire(_product.id > 0 && _product.id <= productCount);\r\n\t\t// make sure they sent enough ether\r\n\t\trequire(msg.value >= _product.price);\r\n\t\t// require product has not already been purchased\r\n\t\trequire(!_product.purchased, \"You cannot upvote your sentence\");\r\n\t\t// require that the buyer is not the seller\r\n\t\trequire(_seller != msg.sender, \"Already upvoted\");\r\n\t\t// require that the buyer is not a previous contributor (i.e already upvoted)\r\n\t\t\r\n\r\n\t\t// purchase it -> transfer ownership to buyer\r\n\t\t_product.owner = payable(msg.sender);\r\n\t\t// mark as purchased\r\n\t\t// increment upvotes of product\r\n\t\t_product.upvotes += 1;\r\n\t\t//add purchaser to contributors\r\n\t\t_product.contributors[_product.upvotes] = addressToString(_product.owner);\r\n\t\t//update the product\r\n\t\tproducts[_id] = _product;\r\n\t\t\r\n\t\t// products[_id] = Product(productCount,\r\n\t\t// _product.name, _product.price, \r\n\t\t// _product.owner, false, \r\n\t\t// _product.upvotes, \r\n\t\t// _product.contributors);\r\n\r\n\t\tif(_product.upvotes >= 2){\r\n\t\t\t_product.purchased = true;\r\n\t\t\t// products[_id] = Product(productCount,\r\n\t\t\t// _product.name, _product.price, \r\n\t\t\t// _product.owner, true, \r\n\t\t\t// _product.upvotes, \r\n\t\t\t// _product.contributors);\r\n\t\t\tproducts[_id] = _product;\r\n\t\t\temit ProductPurchased(productCount, _product.name, _product.price, _product.owner, true, _product.upvotes, _product.contributors);\r\n\t\t}\r\n\t\telse {\r\n\t\t\t_product.purchased = false;\r\n\t\t\tproducts[_id] = _product;\r\n\t\t\temit ProductPurchased(productCount, _product.name, _product.price, _product.owner, false, _product.upvotes, _product.contributors);\r\n\t\t\t//emit ProductCreated(productCount, _product.name, _product.price, _product.owner, false, _product.upvotes, _product.contributors);\r\n\t\t}\t\r\n\t\t// pay the seller by sending them ether\r\n\t\t//address(_seller).transfer(msg.value);\r\n\t\t// trigger an event\r\n\t\t//emit prodict(productCount, _product.name, _product.price, _product.owner, false, _product.upvotes, _product.contributors);\r\n\t\t//createProduct(_product.name, _product.price, _product.upvotes, _product.contributors);\r\n\t\r\n\t\t// if(_product.upvotes < 2){\r\n\t\t// \tcreateProduct(_product.name, _product.price, _product.upvotes, _product.contributors);\r\n\t\t// }\r\n\t\t//products[_id] = _product;\r\n\t}\r\n\r\n\r\n// function trackContributors(uint _id, uint index) public payable {\r\n// \tProduct memory _newProduct = products[_id];\r\n// \tstring memory contrib = _newProduct.contributors[index];\r\n// \temit ContributorTracker(_newProduct.id, contrib);\r\n// \t}\r\n}",
  "sourcePath": "C:/Users/shahd/documents/blockchain/cN/corpse_new/src/contracts/Marketplace.sol",
  "compiler": {
    "name": "solc",
    "version": "0.8.0+commit.c7dfd78e.Emscripten.clang"
  },
  "schemaVersion": "3.3.3",
  "updatedAt": "2023-06-12T17:52:53.058Z",
  "networkType": "ethereum",
  "devdoc": {
    "kind": "dev",
    "methods": {},
    "version": 1
  },
  "userdoc": {
    "kind": "user",
    "methods": {},
    "version": 1
  }
}