{
  "contractName": "Marketplace",
  "abi": [
    {
      "inputs": [],
      "stateMutability": "nonpayable",
      "type": "constructor"
    },
    {
      "anonymous": false,
      "inputs": [
        {
          "indexed": false,
          "internalType": "uint256",
          "name": "id",
          "type": "uint256"
        },
        {
          "indexed": false,
          "internalType": "string",
          "name": "name",
          "type": "string"
        },
        {
          "indexed": false,
          "internalType": "uint256",
          "name": "price",
          "type": "uint256"
        },
        {
          "indexed": false,
          "internalType": "address payable",
          "name": "owner",
          "type": "address"
        },
        {
          "indexed": false,
          "internalType": "bool",
          "name": "purchased",
          "type": "bool"
        },
        {
          "indexed": false,
          "internalType": "uint256",
          "name": "upvotes",
          "type": "uint256"
        },
        {
          "indexed": false,
          "internalType": "string[3]",
          "name": "contributors",
          "type": "string[3]"
        }
      ],
      "name": "ProductCreated",
      "type": "event"
    },
    {
      "anonymous": false,
      "inputs": [
        {
          "indexed": false,
          "internalType": "uint256",
          "name": "id",
          "type": "uint256"
        },
        {
          "indexed": false,
          "internalType": "string",
          "name": "name",
          "type": "string"
        },
        {
          "indexed": false,
          "internalType": "uint256",
          "name": "price",
          "type": "uint256"
        },
        {
          "indexed": false,
          "internalType": "address payable",
          "name": "owner",
          "type": "address"
        },
        {
          "indexed": false,
          "internalType": "bool",
          "name": "purchased",
          "type": "bool"
        },
        {
          "indexed": false,
          "internalType": "uint256",
          "name": "upvotes",
          "type": "uint256"
        },
        {
          "indexed": false,
          "internalType": "string[3]",
          "name": "contributors",
          "type": "string[3]"
        }
      ],
      "name": "ProductPurchased",
      "type": "event"
    },
    {
      "anonymous": false,
      "inputs": [
        {
          "indexed": false,
          "internalType": "uint256",
          "name": "vote",
          "type": "uint256"
        }
      ],
      "name": "upVote",
      "type": "event"
    },
    {
      "inputs": [],
      "name": "historyProdCount",
      "outputs": [
        {
          "internalType": "uint256",
          "name": "",
          "type": "uint256"
        }
      ],
      "stateMutability": "view",
      "type": "function",
      "constant": true
    },
    {
      "inputs": [],
      "name": "name",
      "outputs": [
        {
          "internalType": "string",
          "name": "",
          "type": "string"
        }
      ],
      "stateMutability": "view",
      "type": "function",
      "constant": true
    },
    {
      "inputs": [],
      "name": "productCount",
      "outputs": [
        {
          "internalType": "uint256",
          "name": "",
          "type": "uint256"
        }
      ],
      "stateMutability": "view",
      "type": "function",
      "constant": true
    },
    {
      "inputs": [
        {
          "internalType": "uint256",
          "name": "",
          "type": "uint256"
        }
      ],
      "name": "products",
      "outputs": [
        {
          "internalType": "uint256",
          "name": "id",
          "type": "uint256"
        },
        {
          "internalType": "string",
          "name": "name",
          "type": "string"
        },
        {
          "internalType": "uint256",
          "name": "price",
          "type": "uint256"
        },
        {
          "internalType": "address payable",
          "name": "owner",
          "type": "address"
        },
        {
          "internalType": "bool",
          "name": "purchased",
          "type": "bool"
        },
        {
          "internalType": "uint256",
          "name": "upvotes",
          "type": "uint256"
        }
      ],
      "stateMutability": "view",
      "type": "function",
      "constant": true
    },
    {
      "inputs": [],
      "name": "products_historical",
      "outputs": [
        {
          "internalType": "string",
          "name": "",
          "type": "string"
        }
      ],
      "stateMutability": "view",
      "type": "function",
      "constant": true
    },
    {
      "inputs": [],
      "name": "vote_end",
      "outputs": [
        {
          "internalType": "uint256",
          "name": "",
          "type": "uint256"
        }
      ],
      "stateMutability": "view",
      "type": "function",
      "constant": true
    },
    {
      "inputs": [
        {
          "internalType": "uint256",
          "name": "_id",
          "type": "uint256"
        }
      ],
      "name": "getArr",
      "outputs": [
        {
          "internalType": "string[3]",
          "name": "",
          "type": "string[3]"
        }
      ],
      "stateMutability": "view",
      "type": "function",
      "constant": true
    },
    {
      "inputs": [
        {
          "internalType": "address",
          "name": "_addr",
          "type": "address"
        }
      ],
      "name": "addressToString",
      "outputs": [
        {
          "internalType": "string",
          "name": "",
          "type": "string"
        }
      ],
      "stateMutability": "pure",
      "type": "function",
      "constant": true
    },
    {
      "inputs": [],
      "name": "createVoteEnd",
      "outputs": [],
      "stateMutability": "nonpayable",
      "type": "function"
    },
    {
      "inputs": [],
      "name": "getCurrentVote",
      "outputs": [
        {
          "internalType": "uint256",
          "name": "",
          "type": "uint256"
        }
      ],
      "stateMutability": "view",
      "type": "function",
      "constant": true
    },
    {
      "inputs": [],
      "name": "resetProducts",
      "outputs": [],
      "stateMutability": "view",
      "type": "function",
      "constant": true
    },
    {
      "inputs": [
        {
          "internalType": "string",
          "name": "_name",
          "type": "string"
        },
        {
          "internalType": "uint256",
          "name": "_price",
          "type": "uint256"
        },
        {
          "internalType": "uint256",
          "name": "upvotes",
          "type": "uint256"
        },
        {
          "internalType": "string[3]",
          "name": "contributors",
          "type": "string[3]"
        }
      ],
      "name": "createProduct",
      "outputs": [],
      "stateMutability": "nonpayable",
      "type": "function"
    },
    {
      "inputs": [
        {
          "internalType": "uint256",
          "name": "_id",
          "type": "uint256"
        }
      ],
      "name": "purchaseProduct",
      "outputs": [],
      "stateMutability": "payable",
      "type": "function",
      "payable": true
    }
  ],
  "bytecode": "0x60806040526000600155600060025560006003553480156200002057600080fd5b506040518060400160405280601081526020017f65787175697369746520636f7270736500000000000000000000000000000000815250600090805190602001906200006e929190620000a5565b50604051806020016040528060008152506005908051906020019062000096929190620000a5565b506000600281905550620001ba565b828054620000b39062000155565b90600052602060002090601f016020900481019282620000d7576000855562000123565b82601f10620000f257805160ff191683800117855562000123565b8280016001018555821562000123579182015b828111156200012257825182559160200191906001019062000105565b5b50905062000132919062000136565b5090565b5b808211156200015157600081600090555060010162000137565b5090565b600060028204905060018216806200016e57607f821691505b602082108114156200018557620001846200018b565b5b50919050565b7f4e487b7100000000000000000000000000000000000000000000000000000000600052602260045260246000fd5b612a5e80620001ca6000396000f3fe6080604052600436106100c25760003560e01c80636e2a26351161007f578063dc56028d11610059578063dc56028d1461024e578063de6950e814610279578063e0f6ef87146102a2578063f5f3e5e6146102cd576100c2565b80636e2a2635146101de5780637acc0b20146101f5578063a71ce3ea14610237576100c2565b806306fdde03146100c757806338e76a03146100f257806340f19b411461010e5780634308cf35146101395780635e57966d146101765780635e8a2932146101b3575b600080fd5b3480156100d357600080fd5b506100dc6102f8565b6040516100e99190612552565b60405180910390f35b61010c6004803603810190610107919061235f565b610386565b005b34801561011a57600080fd5b50610123610a02565b6040516101309190612552565b60405180910390f35b34801561014557600080fd5b50610160600480360381019061015b919061235f565b610a90565b60405161016d9190612530565b60405180910390f35b34801561018257600080fd5b5061019d600480360381019061019891906122a3565b610b79565b6040516101aa9190612552565b60405180910390f35b3480156101bf57600080fd5b506101c8610fda565b6040516101d591906125b4565b60405180910390f35b3480156101ea57600080fd5b506101f3610fe0565b005b34801561020157600080fd5b5061021c6004803603810190610217919061235f565b611237565b60405161022e969594939291906125cf565b60405180910390f35b34801561024357600080fd5b5061024c611328565b005b34801561025a57600080fd5b5061026361185a565b60405161027091906125b4565b60405180910390f35b34801561028557600080fd5b506102a0600480360381019061029b91906122cc565b611864565b005b3480156102ae57600080fd5b506102b7611a4d565b6040516102c491906125b4565b60405180910390f35b3480156102d957600080fd5b506102e2611a53565b6040516102ef91906125b4565b60405180910390f35b60008054610305906128e1565b80601f0160208091040260200160405190810160405280929190818152602001828054610331906128e1565b801561037e5780601f106103535761010080835404028352916020019161037e565b820191906000526020600020905b81548152906001019060200180831161036157829003601f168201915b505050505081565b6000600460008381526020019081526020016000206040518060e0016040529081600082015481526020016001820180546103c0906128e1565b80601f01602080910402602001604051908101604052809291908181526020018280546103ec906128e1565b80156104395780601f1061040e57610100808354040283529160200191610439565b820191906000526020600020905b81548152906001019060200180831161041c57829003601f168201915b50505050508152602001600282015481526020016003820160009054906101000a900473ffffffffffffffffffffffffffffffffffffffff1673ffffffffffffffffffffffffffffffffffffffff1673ffffffffffffffffffffffffffffffffffffffff1681526020016003820160149054906101000a900460ff161515151581526020016004820154815260200160058201600380602002604051908101604052809291906000905b828210156105865783820180546104f9906128e1565b80601f0160208091040260200160405190810160405280929190818152602001828054610525906128e1565b80156105725780601f1061054757610100808354040283529160200191610572565b820191906000526020600020905b81548152906001019060200180831161055557829003601f168201915b5050505050815260200190600101906104e3565b5050505081525050905060008160600151905033826060019073ffffffffffffffffffffffffffffffffffffffff16908173ffffffffffffffffffffffffffffffffffffffff1681525050600082600001511180156105eb5750600154826000015111155b6105f457600080fd5b816040015134101561060557600080fd5b81608001511561064a576040517f08c379a000000000000000000000000000000000000000000000000000000000815260040161064190612594565b60405180910390fd5b3373ffffffffffffffffffffffffffffffffffffffff168173ffffffffffffffffffffffffffffffffffffffff1614156106b9576040517f08c379a00000000000000000000000000000000000000000000000000000000081526004016106b090612574565b60405180910390fd5b600182608001901515908115158152505060018260a0018181516106dd9190612795565b915081815250506106ed33610b79565b8260c001518360a001516003811061072e577f4e487b7100000000000000000000000000000000000000000000000000000000600052603260045260246000fd5b60200201819052506040518060e0016040528060015481526020018360200151815260200183604001518152602001836060015173ffffffffffffffffffffffffffffffffffffffff1681526020016000151581526020018360a0015181526020018360c00151815250600460008581526020019081526020016000206000820151816000015560208201518160010190805190602001906107d1929190611fba565b506040820151816002015560608201518160030160006101000a81548173ffffffffffffffffffffffffffffffffffffffff021916908373ffffffffffffffffffffffffffffffffffffffff16021790555060808201518160030160146101000a81548160ff02191690831515021790555060a0820151816004015560c082015181600501906003610864929190612040565b5090505060028260a00151106109a7576040518060e0016040528060015481526020018360200151815260200183604001518152602001836060015173ffffffffffffffffffffffffffffffffffffffff1681526020016001151581526020018360a0015181526020018360c001518152506004600085815260200190815260200160002060008201518160000155602082015181600101908051906020019061090f929190611fba565b506040820151816002015560608201518160030160006101000a81548173ffffffffffffffffffffffffffffffffffffffff021916908373ffffffffffffffffffffffffffffffffffffffff16021790555060808201518160030160146101000a81548160ff02191690831515021790555060a0820151816004015560c0820151816005019060036109a2929190612040565b509050505b7fcbe37aac5d4b7f4123ead5b25660f15fc35685375eec76ab442b278c9d26aec0600154836020015184604001518460018760a001518860c001516040516109f59796959493929190612637565b60405180910390a1505050565b60058054610a0f906128e1565b80601f0160208091040260200160405190810160405280929190818152602001828054610a3b906128e1565b8015610a885780601f10610a5d57610100808354040283529160200191610a88565b820191906000526020600020905b815481529060010190602001808311610a6b57829003601f168201915b505050505081565b610a98612093565b600060046000848152602001908152602001600020905080600501600380602002604051908101604052809291906000905b82821015610b6d578382018054610ae0906128e1565b80601f0160208091040260200160405190810160405280929190818152602001828054610b0c906128e1565b8015610b595780601f10610b2e57610100808354040283529160200191610b59565b820191906000526020600020905b815481529060010190602001808311610b3c57829003601f168201915b505050505081526020019060010190610aca565b50505050915050919050565b606060008273ffffffffffffffffffffffffffffffffffffffff1660001b905060006040518060400160405280601081526020017f303132333435363738396162636465660000000000000000000000000000000081525090506000602a67ffffffffffffffff811115610c16577f4e487b7100000000000000000000000000000000000000000000000000000000600052604160045260246000fd5b6040519080825280601f01601f191660200182016040528015610c485781602001600182028036833780820191505090505b5090507f300000000000000000000000000000000000000000000000000000000000000081600081518110610ca6577f4e487b7100000000000000000000000000000000000000000000000000000000600052603260045260246000fd5b60200101907effffffffffffffffffffffffffffffffffffffffffffffffffffffffffffff1916908160001a9053507f780000000000000000000000000000000000000000000000000000000000000081600181518110610d30577f4e487b7100000000000000000000000000000000000000000000000000000000600052603260045260246000fd5b60200101907effffffffffffffffffffffffffffffffffffffffffffffffffffffffffffff1916908160001a90535060005b6014811015610fce5782600485600c84610d7c9190612795565b60208110610db3577f4e487b7100000000000000000000000000000000000000000000000000000000600052603260045260246000fd5b1a60f81b7effffffffffffffffffffffffffffffffffffffffffffffffffffffffffffff1916901c60f81c60ff1681518110610e18577f4e487b7100000000000000000000000000000000000000000000000000000000600052603260045260246000fd5b602001015160f81c60f81b82600283610e3191906127eb565b6002610e3d9190612795565b81518110610e74577f4e487b7100000000000000000000000000000000000000000000000000000000600052603260045260246000fd5b60200101907effffffffffffffffffffffffffffffffffffffffffffffffffffffffffffff1916908160001a90535082600f60f81b85600c84610eb79190612795565b60208110610eee577f4e487b7100000000000000000000000000000000000000000000000000000000600052603260045260246000fd5b1a60f81b1660f81c60ff1681518110610f30577f4e487b7100000000000000000000000000000000000000000000000000000000600052603260045260246000fd5b602001015160f81c60f81b82600283610f4991906127eb565b6003610f559190612795565b81518110610f8c577f4e487b7100000000000000000000000000000000000000000000000000000000600052603260045260246000fd5b60200101907effffffffffffffffffffffffffffffffffffffffffffffffffffffffffffff1916908160001a9053508080610fc690612913565b915050610d62565b50809350505050919050565b60025481565b610fe86120ba565b60005b60025481101561123357600460008281526020019081526020016000206040518060e00160405290816000820154815260200160018201805461102d906128e1565b80601f0160208091040260200160405190810160405280929190818152602001828054611059906128e1565b80156110a65780601f1061107b576101008083540402835291602001916110a6565b820191906000526020600020905b81548152906001019060200180831161108957829003601f168201915b50505050508152602001600282015481526020016003820160009054906101000a900473ffffffffffffffffffffffffffffffffffffffff1673ffffffffffffffffffffffffffffffffffffffff1673ffffffffffffffffffffffffffffffffffffffff1681526020016003820160149054906101000a900460ff161515151581526020016004820154815260200160058201600380602002604051908101604052809291906000905b828210156111f3578382018054611166906128e1565b80601f0160208091040260200160405190810160405280929190818152602001828054611192906128e1565b80156111df5780601f106111b4576101008083540402835291602001916111df565b820191906000526020600020905b8154815290600101906020018083116111c257829003601f168201915b505050505081526020019060010190611150565b5050505081525050915060405180602001604052806000815250826020018190525060008260a0018181525050808061122b90612913565b915050610feb565b5050565b6004602052806000526040600020600091509050806000015490806001018054611260906128e1565b80601f016020809104026020016040519081016040528092919081815260200182805461128c906128e1565b80156112d95780601f106112ae576101008083540402835291602001916112d9565b820191906000526020600020905b8154815290600101906020018083116112bc57829003601f168201915b5050505050908060020154908060030160009054906101000a900473ffffffffffffffffffffffffffffffffffffffff16908060030160149054906101000a900460ff16908060040154905086565b6002600081548092919061133b90612913565b919050555060036002541061181f576113526120ba565b60005b60025481101561172557600460008281526020019081526020016000206040518060e001604052908160008201548152602001600182018054611397906128e1565b80601f01602080910402602001604051908101604052809291908181526020018280546113c3906128e1565b80156114105780601f106113e557610100808354040283529160200191611410565b820191906000526020600020905b8154815290600101906020018083116113f357829003601f168201915b50505050508152602001600282015481526020016003820160009054906101000a900473ffffffffffffffffffffffffffffffffffffffff1673ffffffffffffffffffffffffffffffffffffffff1673ffffffffffffffffffffffffffffffffffffffff1681526020016003820160149054906101000a900460ff161515151581526020016004820154815260200160058201600380602002604051908101604052809291906000905b8282101561155d5783820180546114d0906128e1565b80601f01602080910402602001604051908101604052809291908181526020018280546114fc906128e1565b80156115495780601f1061151e57610100808354040283529160200191611549565b820191906000526020600020905b81548152906001019060200180831161152c57829003601f168201915b5050505050815260200190600101906114ba565b5050505081525050915060028260a0015110611712576003600081548092919061158690612913565b91905055506116fb6005805461159b906128e1565b80601f01602080910402602001604051908101604052809291908181526020018280546115c7906128e1565b80156116145780601f106115e957610100808354040283529160200191611614565b820191906000526020600020905b8154815290600101906020018083116115f757829003601f168201915b50505050506116f660046000858152602001908152602001600020600101805461163d906128e1565b80601f0160208091040260200160405190810160405280929190818152602001828054611669906128e1565b80156116b65780601f1061168b576101008083540402835291602001916116b6565b820191906000526020600020905b81548152906001019060200180831161169957829003601f168201915b50505050506040518060400160405280600181526020017f2000000000000000000000000000000000000000000000000000000000000000815250611a59565b611a59565b60059080519060200190611710929190611fba565b505b808061171d90612913565b915050611355565b506117ef60058054611736906128e1565b80601f0160208091040260200160405190810160405280929190818152602001828054611762906128e1565b80156117af5780601f10611784576101008083540402835291602001916117af565b820191906000526020600020905b81548152906001019060200180831161179257829003601f168201915b50505050506040518060400160405280600281526020017f0a0a000000000000000000000000000000000000000000000000000000000000815250611a59565b60059080519060200190611804929190611fba565b5061180d610fe0565b60006002819055506000600181905550505b7fec859db5a3c1ca3ee301d012a70f0e287a104754cd2f264283bb84531f0eed5460025460405161185091906125b4565b60405180910390a1565b6000600254905090565b600084511161187257600080fd5b6000831161187f57600080fd5b6001600081548092919061189290612913565b91905055506118a033610b79565b8183600381106118d9577f4e487b7100000000000000000000000000000000000000000000000000000000600052603260045260246000fd5b60200201819052506040518060e0016040528060015481526020018581526020018481526020013373ffffffffffffffffffffffffffffffffffffffff1681526020016000151581526020018381526020018281525060046000600154815260200190815260200160002060008201518160000155602082015181600101908051906020019061196a929190611fba565b506040820151816002015560608201518160030160006101000a81548173ffffffffffffffffffffffffffffffffffffffff021916908373ffffffffffffffffffffffffffffffffffffffff16021790555060808201518160030160146101000a81548160ff02191690831515021790555060a0820151816004015560c0820151816005019060036119fd929190612040565b509050507f724a7f3b7bc135399b5ba2a1305c52ce76299c03071123034f67acddc3becef160015485853360008787604051611a3f9796959493929190612637565b60405180910390a150505050565b60015481565b60035481565b6060611a958383604051806020016040528060008152506040518060200160405280600081525060405180602001604052806000815250611a9d565b905092915050565b606060008690506000869050600086905060008690506000869050600081518351855187518951611ace9190612795565b611ad89190612795565b611ae29190612795565b611aec9190612795565b67ffffffffffffffff811115611b2b577f4e487b7100000000000000000000000000000000000000000000000000000000600052604160045260246000fd5b6040519080825280601f01601f191660200182016040528015611b5d5781602001600182028036833780820191505090505b5090506000819050600080600090505b8851811015611c4157888181518110611baf577f4e487b7100000000000000000000000000000000000000000000000000000000600052603260045260246000fd5b602001015160f81c60f81b838380611bc690612913565b945081518110611bff577f4e487b7100000000000000000000000000000000000000000000000000000000600052603260045260246000fd5b60200101907effffffffffffffffffffffffffffffffffffffffffffffffffffffffffffff1916908160001a9053508080611c3990612913565b915050611b6d565b600090505b8751811015611d1a57878181518110611c88577f4e487b7100000000000000000000000000000000000000000000000000000000600052603260045260246000fd5b602001015160f81c60f81b838380611c9f90612913565b945081518110611cd8577f4e487b7100000000000000000000000000000000000000000000000000000000600052603260045260246000fd5b60200101907effffffffffffffffffffffffffffffffffffffffffffffffffffffffffffff1916908160001a9053508080611d1290612913565b915050611c46565b600090505b8651811015611df357868181518110611d61577f4e487b7100000000000000000000000000000000000000000000000000000000600052603260045260246000fd5b602001015160f81c60f81b838380611d7890612913565b945081518110611db1577f4e487b7100000000000000000000000000000000000000000000000000000000600052603260045260246000fd5b60200101907effffffffffffffffffffffffffffffffffffffffffffffffffffffffffffff1916908160001a9053508080611deb90612913565b915050611d1f565b600090505b8551811015611ecc57858181518110611e3a577f4e487b7100000000000000000000000000000000000000000000000000000000600052603260045260246000fd5b602001015160f81c60f81b838380611e5190612913565b945081518110611e8a577f4e487b7100000000000000000000000000000000000000000000000000000000600052603260045260246000fd5b60200101907effffffffffffffffffffffffffffffffffffffffffffffffffffffffffffff1916908160001a9053508080611ec490612913565b915050611df8565b600090505b8451811015611fa557848181518110611f13577f4e487b7100000000000000000000000000000000000000000000000000000000600052603260045260246000fd5b602001015160f81c60f81b838380611f2a90612913565b945081518110611f63577f4e487b7100000000000000000000000000000000000000000000000000000000600052603260045260246000fd5b60200101907effffffffffffffffffffffffffffffffffffffffffffffffffffffffffffff1916908160001a9053508080611f9d90612913565b915050611ed1565b82995050505050505050505095945050505050565b828054611fc6906128e1565b90600052602060002090601f016020900481019282611fe8576000855561202f565b82601f1061200157805160ff191683800117855561202f565b8280016001018555821561202f579182015b8281111561202e578251825591602001919060010190612013565b5b50905061203c9190612115565b5090565b8260038101928215612082579160200282015b82811115612081578251829080519060200190612071929190611fba565b5091602001919060010190612053565b5b50905061208f9190612132565b5090565b60405180606001604052806003905b60608152602001906001900390816120a25790505090565b6040518060e00160405280600081526020016060815260200160008152602001600073ffffffffffffffffffffffffffffffffffffffff1681526020016000151581526020016000815260200161210f612093565b81525090565b5b8082111561212e576000816000905550600101612116565b5090565b5b8082111561215257600081816121499190612156565b50600101612133565b5090565b508054612162906128e1565b6000825580601f106121745750612193565b601f0160209004906000526020600020908101906121929190612115565b5b50565b60006121a96121a4846126e5565b6126b4565b9050808260005b858110156121e057813585016121c68882612264565b8452602084019350602083019250506001810190506121b0565b5050509392505050565b60006121fd6121f88461270b565b6126b4565b90508281526020810184848401111561221557600080fd5b61222084828561289f565b509392505050565b600081359050612237816129fa565b92915050565b600082601f83011261224e57600080fd5b600361225b848285612196565b91505092915050565b600082601f83011261227557600080fd5b81356122858482602086016121ea565b91505092915050565b60008135905061229d81612a11565b92915050565b6000602082840312156122b557600080fd5b60006122c384828501612228565b91505092915050565b600080600080608085870312156122e257600080fd5b600085013567ffffffffffffffff8111156122fc57600080fd5b61230887828801612264565b94505060206123198782880161228e565b935050604061232a8782880161228e565b925050606085013567ffffffffffffffff81111561234757600080fd5b6123538782880161223d565b91505092959194509250565b60006020828403121561237157600080fd5b600061237f8482850161228e565b91505092915050565b6000612394838361242f565b905092915050565b6123a581612857565b82525050565b60006123b682612745565b6123c08185612768565b9350836020820285016123d28561273b565b8060005b8581101561240e57848403895281516123ef8582612388565b94506123fa8361275b565b925060208a019950506001810190506123d6565b50829750879550505050505092915050565b61242981612869565b82525050565b600061243a82612750565b6124448185612773565b93506124548185602086016128ae565b61245d816129e9565b840191505092915050565b600061247382612750565b61247d8185612784565b935061248d8185602086016128ae565b612496816129e9565b840191505092915050565b60006124ae600f83612784565b91507f416c7265616479207570766f74656400000000000000000000000000000000006000830152602082019050919050565b60006124ee601f83612784565b91507f596f752063616e6e6f74207570766f746520796f75722073656e74656e6365006000830152602082019050919050565b61252a81612895565b82525050565b6000602082019050818103600083015261254a81846123ab565b905092915050565b6000602082019050818103600083015261256c8184612468565b905092915050565b6000602082019050818103600083015261258d816124a1565b9050919050565b600060208201905081810360008301526125ad816124e1565b9050919050565b60006020820190506125c96000830184612521565b92915050565b600060c0820190506125e46000830189612521565b81810360208301526125f68188612468565b90506126056040830187612521565b612612606083018661239c565b61261f6080830185612420565b61262c60a0830184612521565b979650505050505050565b600060e08201905061264c600083018a612521565b818103602083015261265e8189612468565b905061266d6040830188612521565b61267a606083018761239c565b6126876080830186612420565b61269460a0830185612521565b81810360c08301526126a681846123ab565b905098975050505050505050565b6000604051905081810181811067ffffffffffffffff821117156126db576126da6129ba565b5b8060405250919050565b600067ffffffffffffffff821115612700576126ff6129ba565b5b602082029050919050565b600067ffffffffffffffff821115612726576127256129ba565b5b601f19601f8301169050602081019050919050565b6000819050919050565b600060039050919050565b600081519050919050565b6000602082019050919050565b600081905092915050565b600082825260208201905092915050565b600082825260208201905092915050565b60006127a082612895565b91506127ab83612895565b9250827fffffffffffffffffffffffffffffffffffffffffffffffffffffffffffffffff038211156127e0576127df61295c565b5b828201905092915050565b60006127f682612895565b915061280183612895565b9250817fffffffffffffffffffffffffffffffffffffffffffffffffffffffffffffffff048311821515161561283a5761283961295c565b5b828202905092915050565b600061285082612875565b9050919050565b600061286282612875565b9050919050565b60008115159050919050565b600073ffffffffffffffffffffffffffffffffffffffff82169050919050565b6000819050919050565b82818337600083830152505050565b60005b838110156128cc5780820151818401526020810190506128b1565b838111156128db576000848401525b50505050565b600060028204905060018216806128f957607f821691505b6020821081141561290d5761290c61298b565b5b50919050565b600061291e82612895565b91507fffffffffffffffffffffffffffffffffffffffffffffffffffffffffffffffff8214156129515761295061295c565b5b600182019050919050565b7f4e487b7100000000000000000000000000000000000000000000000000000000600052601160045260246000fd5b7f4e487b7100000000000000000000000000000000000000000000000000000000600052602260045260246000fd5b7f4e487b7100000000000000000000000000000000000000000000000000000000600052604160045260246000fd5b6000601f19601f8301169050919050565b612a0381612845565b8114612a0e57600080fd5b50565b612a1a81612895565b8114612a2557600080fd5b5056fea2646970667358221220041fe190f4901fdba5461a3db468e57940812574a570ff666ba4444062cc1f5064736f6c63430008000033",
  "immutableReferences": {},
  "source": "pragma solidity ^0.8.0;\r\n\r\ncontract Marketplace {\r\n\tstring public name;\r\n\tuint public productCount = 0;\r\n\tuint public vote_end = 0;\r\n\tuint public historyProdCount = 0;\r\n\tmapping(uint => Product) public products;\r\n\t// store the stories that have reached ten upvotes for display\r\n\tstring public products_historical;\r\n\r\n\tstruct Product {\r\n\t\tuint id;\r\n\t\tstring name;\r\n\t\tuint price;\r\n\t\taddress payable owner;\r\n\t\tbool purchased;\r\n\t\tuint upvotes;\r\n\t\tstring[3] contributors;\r\n\t}\r\n\r\n\tevent ProductCreated(\r\n\t\tuint id,\r\n\t\tstring name,\r\n\t\tuint price,\r\n\t\taddress payable owner,\r\n\t\tbool purchased,\r\n\t\tuint upvotes,\r\n\t\tstring[3] contributors\t\r\n\t);\r\n\r\n\tevent upVote(\r\n\t\tuint vote\r\n\t);\r\n\r\n\tevent ProductPurchased(\r\n\t\tuint id,\r\n\t\tstring name,\r\n\t\tuint price,\r\n\t\taddress payable owner,\r\n\t\tbool purchased,\r\n\t\tuint upvotes,\r\n\t\tstring[3] contributors\r\n\t);\r\n\r\n\tstruct voteEnd{\r\n\t\tuint votes;\r\n\t}\r\n\t\r\n\r\n\tconstructor() {\r\n\t\tname = \"exquisite corpse\";\r\n\t\tproducts_historical ='';\r\n\t\tvote_end = 0;\r\n\t}\r\n\r\n\tfunction getArr(uint _id) public view returns (string[3] memory) {\r\n\t\tProduct storage myProduct = products[_id];\r\n    \treturn myProduct.contributors;\r\n\t}\r\n\r\n\tfunction strConcat(string memory _a, string memory _b, string memory _c, string memory _d, string memory _e) internal pure returns (string memory){\r\n    bytes memory _ba = bytes(_a);\r\n    bytes memory _bb = bytes(_b);\r\n    bytes memory _bc = bytes(_c);\r\n    bytes memory _bd = bytes(_d);\r\n    bytes memory _be = bytes(_e);\r\n    string memory abcde = new string(_ba.length + _bb.length + _bc.length + _bd.length + _be.length);\r\n    bytes memory babcde = bytes(abcde);\r\n    uint k = 0;\r\n\tuint i = 0;\r\n    for (i = 0; i < _ba.length; i++) babcde[k++] = _ba[i];\r\n    for (i = 0; i < _bb.length; i++) babcde[k++] = _bb[i];\r\n    for (i = 0; i < _bc.length; i++) babcde[k++] = _bc[i];\r\n    for (i = 0; i < _bd.length; i++) babcde[k++] = _bd[i];\r\n    for (i = 0; i < _be.length; i++) babcde[k++] = _be[i];\r\n    return string(babcde);\r\n\t}\r\n\r\n\tfunction strConcat(string memory _a, string memory _b) internal pure returns (string memory) {\r\n    return strConcat(_a, _b, \"\", \"\", \"\");\r\n}\r\n\r\n\tfunction toString(uint _i) internal pure returns (string memory _uintAsString) {\r\n        if (_i == 0) {\r\n            return \"0\";\r\n        }\r\n        uint j = _i;\r\n        uint len;\r\n        while (j != 0) {\r\n            len++;\r\n            j /= 10;\r\n        }\r\n        bytes memory bstr = new bytes(len);\r\n        uint k = len;\r\n        while (_i != 0) {\r\n            k = k-1;\r\n            uint8 temp = (48 + uint8(_i - _i / 10 * 10));\r\n            bytes1 b1 = bytes1(temp);\r\n            bstr[k] = b1;\r\n            _i /= 10;\r\n        }\r\n        return string(bstr);\r\n    }\r\n\tfunction addressToString(address _addr) public pure returns (string memory) {\r\n\t\tbytes32 value = bytes32(uint256(uint160(_addr)));\r\n\t\tbytes memory alphabet = \"0123456789abcdef\";\r\n\r\n\t\tbytes memory str = new bytes(42);\r\n\t\tstr[0] = '0';\r\n\t\tstr[1] = 'x';\r\n\t\tfor (uint i = 0; i < 20; i++) {\r\n\t\t\tstr[2+i*2] = alphabet[uint8(value[i + 12] >> 4)];\r\n\t\t\tstr[3+i*2] = alphabet[uint8(value[i + 12] & 0x0f)];\r\n\t\t}\r\n\t\treturn string(str);\r\n\t}\r\n\r\n\tfunction createVoteEnd() public {\r\n\t\tvote_end++;\r\n\t\tif(vote_end >= 3){\r\n\t\t\tProduct memory _product;\r\n\t\t\tfor(uint i = 0; i < vote_end; i++){\r\n\t\t\t\t_product = products[i];\r\n\t\t\t\tif(_product.upvotes >= 2){\r\n\t\t\t\t\t\thistoryProdCount++;\r\n\t\t\t\t\t\tproducts_historical = strConcat(products_historical, strConcat(products[i].name, \" \"));\r\n\t\t\t\t}\r\n\t\t\t}\r\n\t\t\tproducts_historical = strConcat(products_historical, \"\\n\\n\");\r\n\t\t\tresetProducts();\r\n\t\t\tvote_end = 0;\r\n\t\t\tproductCount = 0;\r\n\t\t}\r\n\t\temit upVote(vote_end);\r\n\t}\r\n\r\n\tfunction getCurrentVote() public view returns (uint) {\r\n\t\t// portion where we plug in tufts account\r\n\t\t// address(_seller).transfer(msg.value);\r\n\t\treturn vote_end;\r\n\t}\r\n\r\n\r\n\t// function checkVotesLoad() public{\r\n\t// \tProduct memory _product;\r\n\t// \tfor(uint i = 0; i < vote_end; i++){\r\n\t// \t\t_product = products[i];\r\n\t// \t\tif(_product.upvotes >= 2){\r\n\t// \t\t\t\thistoryProdCount++;\r\n\t// \t\t\t\t_product = products[i];\r\n \t// \t\t\t\tproducts_historical[historyProdCount] = _product;\r\n\t// \t\t}\r\n\t// \t}\r\n\t// }\r\n\r\n\tfunction resetProducts() public view{\r\n\t\tProduct memory _product;\r\n\t\tfor(uint i = 0; i < vote_end; i++){\r\n\t\t\t_product = products[i];\r\n\t\t\t_product.name = \"\";\r\n\t\t\t_product.upvotes = 0;\r\n\t\t}\r\n\t}\r\n\r\n\r\n\tfunction createProduct(string memory _name, uint _price, uint upvotes, string[3] memory contributors) public {\r\n\t\t// require a name\r\n\t\trequire(bytes(_name).length > 0);\r\n\t\t// require a valid price\r\n\t\trequire(_price > 0);\r\n\t\t// make sure params good\r\n\t\t// inc products count\r\n\t\tproductCount++;\r\n\t\t//add owner to contributors\r\n\t\tcontributors[upvotes] = addressToString(msg.sender);\r\n\t\t// create the product\r\n\t\tproducts[productCount] = Product(productCount, _name, _price, payable(msg.sender), false, upvotes, contributors);\r\n\t\t// trigger an event\t\r\n\t\temit ProductCreated(productCount, _name, _price, payable(msg.sender), false, upvotes, contributors);\r\n\t}\r\n\r\n\tfunction purchaseProduct(uint _id) public payable {\r\n\t\t// fetch product\r\n\t\tProduct memory _product = products[_id];\t\r\n\t\t// fetch the owner\r\n\t\taddress _seller = _product.owner;\r\n\t\t_product.owner = payable(msg.sender);\r\n\t\t// make sure the product has a valid id\r\n\t\trequire(_product.id > 0 && _product.id <= productCount);\r\n\t\t// make sure they sent enough ether\r\n\t\trequire(msg.value >= _product.price);\r\n\t\t// require product has not already been purchased\r\n\t\trequire(!_product.purchased, \"You cannot upvote your sentence\");\r\n\t\t// require that the buyer is not the seller\r\n\t\trequire(_seller != msg.sender, \"Already upvoted\");\r\n\t\t// require that the buyer is not a previous contributor (i.e already upvoted)\r\n\t\t\r\n\r\n\t\t// purchase it -> transfer ownership to buyer\r\n\t\t//_product.owner = msg.sender;\r\n\t\t// mark as purchased\r\n\t\t_product.purchased = true;\r\n\t\t// increment upvotes of product\r\n\t\t_product.upvotes += 1;\r\n\t\t//add purchaser to contributors\r\n\t\t_product.contributors[_product.upvotes] = addressToString(msg.sender);\r\n\t\t//update the product\r\n\t\t//products[_id] = _product;\r\n\t\t\r\n\t\tproducts[_id] = Product(productCount,\r\n\t\t_product.name, _product.price, \r\n\t\t_product.owner, false, \r\n\t\t_product.upvotes, \r\n\t\t_product.contributors);\r\n\r\n\t\tif(_product.upvotes >= 2){\r\n\t\t\tproducts[_id] = Product(productCount,\r\n\t\t\t_product.name, _product.price, \r\n\t\t\t_product.owner, true, \r\n\t\t\t_product.upvotes, \r\n\t\t\t_product.contributors);\r\n\t\t}\t\r\n\t\t// pay the seller by sending them ether\r\n\t\t//address(_seller).transfer(msg.value);\r\n\t\t// trigger an event\r\n\t\temit ProductPurchased(productCount, _product.name, _product.price, payable(_seller), true, _product.upvotes, _product.contributors);\r\n\t\t//createProduct(_product.name, _product.price, _product.upvotes, _product.contributors);\r\n\t\t\r\n\t\t// if(_product.upvotes < 2){\r\n\t\t// \tcreateProduct(_product.name, _product.price, _product.upvotes, _product.contributors);\r\n\t\t// }\r\n\t}\r\n}",
  "sourcePath": "C:/Users/baran/blockchain/marketplace/corpse/corpse/corpse_new/src/contracts/Marketplace.sol",
  "compiler": {
    "name": "solc",
    "version": "0.8.0+commit.c7dfd78e.Emscripten.clang"
  },
  "schemaVersion": "3.3.3",
  "updatedAt": "2023-06-10T18:10:40.318Z",
  "networkType": "ethereum",
  "devdoc": {
    "kind": "dev",
    "methods": {},
    "version": 1
  },
  "userdoc": {
    "kind": "user",
    "methods": {},
    "version": 1
  }
}